:100000000C945D000C9485000C9485000C94850084
:100010000C9485000C9485000C9485000C9485004C
:100020000C9485000C9485000C9485000C949D0420
:100030000C9485000C9485000C9485000C9485002C
:100040000C9453040C9485000C9485000C9485004A
:100050000C9485000C9485000C9485000C9485000C
:100060000C9459050C948500000000080002010062
:100070000003040700000000000000000000000072
:10008000250028002B0000000000240027002A0083
:10009000040404040404040402020202020203032E
:1000A0000303030301020408102040800102040836
:1000B0001020010204081020780611241FBECFEF83
:1000C000D8E0DEBFCDBF11E0A0E0B1E0ECEFF2E19F
:1000D00002C005900D92A231B107D9F722E0A2E14A
:1000E000B1E001C01D92A531B207E1F710E0CDE506
:1000F000D0E004C02197FE010E947609CC35D107DB
:10010000C9F70E94C3060C947C090C94000090E08F
:10011000FC01EC55FF4F249180579F4FFC018491C7
:10012000882399F090E0880F991FFC01EA57FF4F50
:10013000A591B491FC01E458FF4F859194918FB73C
:10014000F894EC91E22BEC938FBF089590E0FC01C2
:10015000E859FF4F2491FC01EC55FF4F3491FC010D
:10016000E057FF4FE491EE23C9F0222339F023300A
:1001700001F1A8F4213019F1223029F1F0E0EE0F5D
:10018000FF1FE458FF4FA591B4918FB7F894EC91FD
:10019000611126C030953E233C938FBF08952730D0
:1001A000A9F02830C9F0243049F7809180008F7D74
:1001B00003C0809180008F7780938000DFCF84B56B
:1001C0008F7784BDDBCF84B58F7DFBCF8091B0006E
:1001D0008F778093B000D2CF8091B0008F7DF9CF20
:1001E0003E2BDACF3FB7F89480918A0190918B0132
:1001F000A0918C01B0918D0126B5A89B05C02F3F21
:1002000019F00196A11DB11D3FBFBA2FA92F982F3C
:100210008827BC01CD01620F711D811D911D42E037
:10022000660F771F881F991F4A95D1F708958F92FF
:100230009F92AF92BF92CF92DF92EF92FF924B01CB
:100240005C010E94F2006B017C010E94F2006C19BB
:100250007D098E099F09683E734081059105A8F3C9
:1002600021E0821A9108A108B10888EEC80E83E047
:10027000D81EE11CF11C81149104A104B10429F7DA
:10028000FF90EF90DF90CF90BF90AF909F908F90B6
:10029000089580915B0190915C01891B990B0895F1
:1002A00008950895CF92DF92EF92FF92CF93DF935C
:1002B000EC01603282E07807CCF5653B710514F003
:1002C00064EB70E0898128E830E0281B310987FD64
:1002D0003395220F331F220F331F6901330FEE08AE
:1002E000FF088A8128E532E0281B310987FD339514
:1002F000220F331F220F331F032E000C440B550B0C
:100300002C193D094E095F09DB0177FF02C0B0E0FF
:10031000A0E00E94090924EB30E040E050E00E9498
:10032000DF08C20ED31EE41EF51EB601E881EC30D4
:1003300070F5298188E890E0821B910927FD93954B
:10034000880F991F880F991F681779077CF02A81F9
:1003500088E592E0821B910927FD9395880F991FEC
:10036000880F991F681779070CF4CB010297880F43
:10037000991F4FB7F8942E2F30E0F901EE0FFF1FB1
:10038000E20FF31FE651FE4F928381834FBFDF914F
:10039000CF91FF90EF90DF90CF9008951F93CF9370
:1003A000DF93EC01162F88818C3008F04DC0862F2A
:1003B0000E9487008881282F30E0F901EE0FFF1F8F
:1003C000E20FF31FE651FE4F1F736081607C612BCB
:1003D000608319821A822CE0622F0E944209829F58
:1003E000B001112430E020E0AB01420F531FFA01AD
:1003F000EE0FFF1FE40FF51FE651FE4F908196FDB3
:1004000016C02F5F3F4F2C30310571F781110FC09F
:100410001092800082E080938100109285001092FB
:100420008400B19A80916F00826080936F00E881B0
:100430008E2F90E0FC01EE0FFF1FE80FF91FE65131
:10044000FE4F8081806480838881DF91CF911F91EE
:10045000089520913301260F3327331F21323105B0
:10046000ECF42091B401FC0190E080E0243069F0CC
:1004700082E00895A09133012191AC014D5E5E4F61
:10048000A40FB52FB11D2C930196861798F3809178
:100490003301680F6093330180E0089581E008958F
:1004A0001092B40181E08093B30110928E0161E05B
:1004B00082E10E94A60061E083E10E94A600E9EBD0
:1004C000F0E080818E7F808380818D7F808388E4CF
:1004D0008093B80085E48093BC000895CF93DF93A8
:1004E00091E0909312018823B9F0C091B800D091A7
:1004F000BA008091BC008A7B8093BC0060E082E1FE
:100500000E94A60060E083E10E94A6000E945002C3
:10051000D093BA00C093B800DF91CF9108958F9225
:100520009F92AF92BF92CF92DF92EF92FF920F9382
:100530001F93CF93DF93D091DD01D13208F0D7C064
:10054000182FC091DC010E94F2006B017C018091A8
:10055000B40181116BC082E08093B4011093B301A8
:100560008FEF8093B2011092B101D093B001ACEB48
:10057000B1E0E0E9F1E080E0D81391C010928F0182
:1005800080918F01CC0FC82BC0938F0180918E0179
:10059000813009F088C010928E010E94F2006B0138
:1005A0007C0180918F018093BB008091B601909176
:1005B000B701A091B801B091B901892B8A2B8B2B7F
:1005C000A1F00E94F2000091B6011091B7012091B4
:1005D000B8013091B9016C197D098E099F09061780
:1005E00017072807390708F442C08091BC0083FD33
:1005F000D8CF85EC8093BC000E94F2006B017C0197
:100600008091B401823009F450C08091B2018F3FD3
:1006100009F46FC08091B201803209F46CC08091FE
:10062000B201803309F469C084E026C08091B6012C
:100630009091B701A091B801B091B901892B8A2B93
:100640008B2B09F484CF0E94F2008090B601909029
:10065000B701A090B801B090B9016C197D098E095D
:100660009F0986169706A806B90608F070CF8091F4
:10067000B5010E946E0285E01092BB011092DD016F
:100680001092BA01DF91CF911F910F91FF90EF90DF
:10069000DF90CF90BF90AF909F908F9008959D91E5
:1006A00091938F5F69CF85EEA5CF8091B601909130
:1006B000B701A091B801B091B901892B8A2B8B2B7E
:1006C00009F49ECF0E94F2000091B6011091B7018B
:1006D0002091B8013091B9016C197D098E099F09EB
:1006E000061717072807390708F08ACFC0CF81E01F
:1006F000C3CF80E0C1CF82E0BFCF83E0BDCF0895FC
:10070000E0915C0180915B01E81730F4F0E0E35A7E
:10071000FE4F808190E008958FEF9FEF08959091B4
:100720005C0180915B012FEF3FEF981748F4E92FB0
:10073000F0E0E35AFE4F208130E09F5F90935C0130
:10074000C9010895CF92DF92EF92FF920F931F930A
:10075000CF93DF937C01CB018A012091BA01222340
:1007600089F0EB016B01C40ED51ECC15DD0569F0D7
:100770006991D701ED91FC910190F081E02DC701C5
:100780000995F3CF642F0E942902C801DF91CF9110
:100790001F910F91FF90EF90DF90CF900895CF932E
:1007A000DF931F92CDB7DEB769832091BA01222370
:1007B000F9F02091DD01203258F021E030E0FC0119
:1007C0003383228390E080E00F90DF91CF910895F2
:1007D0008091BB01E82FF0E0E454FE4F99819083B3
:1007E0008F5F8093BB018093DD0181E090E0ECCFCF
:1007F00061E0CE0101960E942902F7CFCF93C82F66
:1008000081E08093BA0183E58093DC011092BB0103
:100810001092DD016DE28EED91E00E94CF036C2F0E
:100820008EED91E00E94CF0381E0CF910C948F0276
:1008300090E080E0089585ED8093BC008091B60142
:100840009091B701A091B801B091B9010796A11D8F
:10085000B11D23E0B695A795979587952A95D1F771
:100860002091BC0024FD03C01092B4010895409172
:10087000B6015091B7016091B8017091B901452B53
:10088000462B472B69F30097A105B10541F02AE2F9
:100890002A95F1F700C00197A109B109E1CF809134
:1008A000B5010C946E021F920F920FB60F92112495
:1008B0002F933F938F939F93AF93BF938091860124
:1008C00090918701A0918801B091890130918501B3
:1008D00023E0230F2D3758F50196A11DB11D20935C
:1008E00085018093860190938701A0938801B0933E
:1008F000890180918A0190918B01A0918C01B09126
:100900008D010196A11DB11D80938A0190938B01E9
:10091000A0938C01B0938D01BF91AF919F918F9166
:100920003F912F910F900FBE0F901F90189526E8C2
:10093000230F0296A11DB11DD2CF1F920F920FB6A9
:100940000F9211242F933F934F935F936F937F9355
:100950008F939F93AF93BF93CF93DF93EF93FF93C7
:1009600080915601C0910E02D0E087FF24C0109202
:10097000850010928400809156018F5F809356010C
:1009800080915601082E000C990B8C179D0724F4BA
:10099000809156018C30C4F1809184009091850043
:1009A000049680349C4908F47AC080918400909128
:1009B0008500049676C080915601082E000C990B94
:1009C0008C179D07C4F6E09156018E2FEE0F990B00
:1009D000FC01EE0FFF1FE80FF91FE651FE4F80816B
:1009E00086FFC9CFE09156018E2FEE0F990BFC01C7
:1009F000EE0FFF1FE80FF91FE651FE4F808160E008
:100A00008F730E94A600B7CF20918400309185009B
:100A1000E09156018E2FEE0F990BFC01EE0FFF1F98
:100A2000E80FF91FE651FE4F81819281820F931FDB
:100A30009093890080938800E09156018E2FEE0FED
:100A4000990BFC01EE0FFF1FE80FF91FE651FE4F57
:100A5000808186FF11C0E09156018E2FEE0F990B19
:100A6000FC01EE0FFF1FE80FF91FE651FE4F8081DA
:100A700061E08F730E94A600FF91EF91DF91CF910B
:100A8000BF91AF919F918F917F916F915F914F91A6
:100A90003F912F910F900FBE0F901F90189580E4FB
:100AA0009CE990938900809388008FEF8093560192
:100AB000E3CF1F920F920FB60F9211242F933F9303
:100AC0004F935F936F937F938F939F93AF93BF9356
:100AD000EF93FF938091B900887F803609F44AC074
:100AE000F0F5883209F4A7C018F5803109F49BC0ED
:100AF000B8F4882309F4F9C0883009F494C0FF9150
:100B0000EF91BF91AF919F918F917F916F915F9185
:100B10004F913F912F910F900FBE0F901F901895FE
:100B2000883109F488C0803251F78093B20114C033
:100B3000803409F49DC040F48033B9F38833F9F66A
:100B40008093B20185ECB0C0803509F485C088354A
:100B500009F496C0883499F60E941B04D0CF8839D6
:100B600009F48CC038F5883729F050F4883611F034
:100B7000803729F683E08093B4011092550157C065
:100B8000883809F47BC0803919F0803809F0B7CF74
:100B900080915501803208F071C0E091550181E0EB
:100BA0008E0F809355018091BB00F0E0EB5CFE4F0F
:100BB00080833DC0803B39F0E0F4803A09F479C08D
:100BC000883A09F09CCF84E08093B40110923401FC
:100BD00010923301E0915901F0915A0109958091E9
:100BE000330181110FC081E0809333011092130112
:100BF00009C0803C09F4A6CF883C09F4A3CF883B08
:100C000009F07DCFE091340181E08E0F80933401B3
:100C1000F0E0ED5EFE4F80818093BB009091340147
:100C20008091330129C080918F018093BB0085ECB6
:100C30008093BC0064CF9091B1018091B00198176E
:100C400058F5E091B10181E08E0F8093B101F0E0A1
:100C5000E057FE4F8081E9CFE091B10181E08E0F36
:100C60008093B1018091BB00F0E0E057FE4F80839C
:100C70009091B1018091B0019817C8F285E8D8CF62
:100C8000E091B10181E08E0F8093B1018091BB00B2
:100C9000F0E0E057FE4F80838091B30181115CCF7B
:100CA00081E080938E0184EA8093BC001092B401AD
:100CB00026CF85EC8093BC001092B4018091550141
:100CC000803230F4E0915501F0E0EB5CFE4F108291
:100CD0006091550170E0E0915701F091580185E372
:100CE00091E00995109255010ACF1092B20134CFCC
:100CF0001092E1011092E00188EE93E0A0E0B0E0F4
:100D00008093E2019093E301A093E401B093E501A5
:100D100084E091E09093DF018093DE0180910E02E8
:100D20008C3048F591E0980F90930E028093120258
:100D300090E0FC01EE0FFF1FE80FF91FE651FE4F98
:100D400088EB9BE09283818380910E028C30B8F413
:100D500091E0980F90930E0280930F0290E0FC01B7
:100D6000EE0FFF1FE80FF91FE651FE4F88EB9BE0E7
:100D70009283818308958FEF80931202E5CF8FEFE6
:100D800080930F020895789484B5826084BD84B501
:100D9000816084BD85B5826085BD85B5816085BD76
:100DA00080916E00816080936E001092810080912E
:100DB00081008260809381008091810081608093B6
:100DC0008100809180008160809380008091B100DB
:100DD00084608093B1008091B00081608093B00006
:100DE00080917A00846080937A0080917A0082609A
:100DF00080937A0080917A00816080937A0080915C
:100E00007A00806880937A001092C10080E10E948D
:100E1000870061E080E10E94A60010925C011092C0
:100E20005B011092BB011092DD010E94500280E52F
:100E300091E090935A018093590181E591E090935C
:100E400058018093570169E070E082E192E00E94CE
:100E5000CE016AE070E08FE092E00E94CE016AE588
:100E600070E082E192E00E94520169E170E080E06E
:100E700090E00E9417016AE570E08FE092E00E9426
:100E8000520169E170E080E090E00E94170180E08B
:100E90000E94FE0380E10E94FE0388E00E94FE03A0
:100EA00085E0682E712C9EEF892E99249394A12CB5
:100EB000B12C60E080E10E94A6006AE070E080E072
:100EC00090E00E94170161E080E10E94A600C1E06D
:100ED000C093BA0183E58093DC011092BB011092AC
:100EE000DD0162E38EED91E00E94CF0381E00E947C
:100EF0008F02C093BA011092BB011092DD010E94D3
:100F0000F2006B017C018091B401811165C081E028
:100F10008093B4018093B3019FEF9093B20110923C
:100F2000B10195E09093B00180938F0180918F0182
:100F3000866A80938F0180918E01813009F082C092
:100F400010928E010E94F2006B017C0180918F0152
:100F50008093BB008091B6019091B701A091B80138
:100F6000B091B901892B8A2B8B2BA1F00E94F20042
:100F70000091B6011091B7012091B8013091B901EB
:100F80006C197D098E099F0906171707280739076D
:100F900008F443C08091BC0083FDD8CF85EC8093DA
:100FA000BC000E94F2006B017C018091B401813091
:100FB00009F44CC08091B10116E0863010F4109114
:100FC000B101E0E9F1E0ADE5B1E080E0811751F178
:100FD00091919D938F5FFACF8091B6019091B70167
:100FE000A091B801B091B901892B8A2B8B2B09F400
:100FF0008ACF0E94F2000091B6011091B7012091B2
:10100000B8013091B9016C197D098E099F09061745
:1010100017072807390708F076CF8091B5010E949D
:101020006E0210E010925C0110935B01CFE7D1E0FB
:1010300080915C01181761F18EED91E00E948F03A1
:101040008993F6CF95EE9093BC00ABCF8091B6011B
:101050009091B701A091B801B091B901892B8A2B69
:101060008B2B09F4A2CF0E94F2000091B6011091DF
:10107000B7012091B8013091B9016C197D098E0931
:101080009F09061717072807390708F08ECFC5CF25
:1010900081E00E948F0281E090E090937E01809336
:1010A0007D0110E000E0F12CE12CC0917D01D09198
:1010B0007E01C630D105C4F480917F0190918001FA
:1010C000E80EF91E8091810190918201080F191F8D
:1010D0006AE070E080E090E00E9417012196D093D2
:1010E0007E01C0937D01E1CFC701B3010E944E098B
:1010F0009B016F3F710519F014F02FEF30E0C8012C
:10110000B3010E944E09EB016F3F710519F014F015
:10111000CFEFD0E021309FEF390714F421E03FEF0B
:10112000032E000C440B550B21503F4F4F4F5F4F88
:10113000A4EBB0E00E94FE08A50194010E94DF0824
:101140001901C1308FEFD80714F4C1E0DFEF9E0121
:10115000DD0F440B550B21503F4F4F4F5F4FA4EB1A
:10116000B0E00E94FE08A50194010E94DF08690119
:10117000B10182E192E00E94520169E170E080E0F9
:1011800090E00E94170164EB70E06C197D098FE01C
:1011900092E00E94520169E170E080E090E00E94DC
:1011A000170168EC70E080E090E00E94170180E099
:1011B00090E0892B09F47DCE0E9400007ACE052EA6
:1011C00097FB1EF400940E94F60857FD07D00E947A
:1011D000110907FC03D04EF40C94F6085095409585
:1011E000309521953F4F4F4F5F4F089590958095D3
:1011F000709561957F4F8F4F9F4F08950E943309DF
:10120000A59F900DB49F900DA49F800D911D11245A
:101210000895B7FF0C94FE080E94FE08821B930BF2
:101220000895A1E21A2EAA1BBB1BFD010DC0AA1F27
:10123000BB1FEE1FFF1FA217B307E407F50720F03F
:10124000A21BB30BE40BF50B661F771F881F991FBA
:101250001A9469F760957095809590959B01AC0103
:10126000BD01CF010895A29FB001B39FC001A39F0C
:10127000700D811D1124911DB29F700D811D1124CF
:10128000911D0895991B79E004C0991F961708F0E5
:10129000961B881F7A95C9F78095089597FB072EAE
:1012A00016F4009407D077FD09D00E94620907FC6C
:1012B00005D03EF4909581959F4F08957095619566
:1012C0007F4F0895AA1BBB1B51E107C0AA1FBB1F7C
:1012D000A617B70710F0A61BB70B881F991F5A95C2
:1012E000A9F780959095BC01CD010895EE0FFF1FE1
:0C12F0000590F491E02D0994F894FFCFD4
:1012FC0000000000CF03A20318047F0349018F03F1
:02130C0080035C
:00000001FF
